:020000040800F2
:1000000000B10220650200085D71000819170008A0
:10001000597100082D0400084D740008000000000C
:10002000000000000000000000000000497200080D
:100030003104000800000000617100084D720008E2
:100040007F0200087F0200087F0200087F0200088C
:100050007F0200087F0200087F0200087F0200087C
:100060007F0200087F0200087F0200087F0200086C
:100070007F0200087F0200087F0200087F0200085C
:100080007F0200087F0200087F0200087F0200084C
:100090007F0200087F0200087F0200087F0200083C
:1000A0007F0200087F0200087F0200087F0200082C
:1000B0007F0200087F0200087F0200087F0200081C
:1000C0007F0200087F0200087F0200087F0200080C
:1000D0007F0200087F0200087F0200087F020008FC
:1000E0007F0200087F0200087F0200087F020008EC
:1000F0007F0200087F0200087F0200087F020008DC
:10010000000000007F0200087F0200087F02000854
:1001100000000000000000007F0200087F020008CD
:100120007F0200087F0200087F0200087F020008AB
:100130007F0200087F0200087F0200087F0200089B
:100140007F0200087F0200087F0200087F0200088B
:100150007F0200087F0200087F0200087F0200087B
:100160007F0200087F02000800000000000000007D
:10017000000000000000000000000000000000007F
:100180007F0200087F02000800000000000000005D
:100190007F0200087F02000800000000000000004D
:1001A000000000000000000000000000000000004F
:1001B0007F02000800000000000000007F0200082D
:1001C0007F02000800F002F800F03CF80AA090E876
:1001D000000C82448344AAF10107DA4501D100F002
:1001E00031F8AFF2090EBAE80F0013F0010F18BF93
:1001F000FB1A43F001031847388B0000588B0000AE
:10020000103A24BF78C878C1FAD8520724BF30C842
:1002100030C144BF04680C60704700000023002414
:1002200000250026103A28BF78C1FBD8520728BF06
:1002300030C148BF0B6070471FB508F0E6FC1FBD1A
:1002400010B510BD00F0BCF81146FFF7F5FF07F040
:10025000B1FA00F0DAF803B4FFF7F2FF03BC00F0E4
:10026000DDF800000948804709480047FEE7FEE73F
:10027000FEE7FEE7FEE7FEE7FEE7FEE7FEE7FEE756
:1002800004480549054A064B70470000FD72000806
:10029000C50100080091022000B1022000A1022047
:1002A00000A1022053EA020C00F069802DE9F04B16
:1002B0004FF00006002B1FBFB3FA83F503FA05F4D5
:1002C00024FA05F65E4012BF1643B2FA82F502FA2E
:1002D00005F4C5F120051EBF22FA05FC44EA0C0412
:1002E000203556EA044C4FEA144418BF641C4FF002
:1002F00000084FF00009904271EB030C39D300293C
:1003000019BFB1FA81F701FA07F6B0FA80F700FADF
:1003100007F6C7F120071EBF20FA07FC46EA0C06C5
:100320002037B6FBF4FCA7EB0507103F07F01F0BC7
:10033000CBF120062CFA06F60CFA0BFB44BFB346B1
:100340000026202FA4BF5E464FF0000B5BEA060C90
:1003500008BF4FF0010B19EB0B0948EB0608ABFB8C
:10036000027C06FB02CC0BFB03CCC01B71EB0C0127
:10037000C1E70B46024641464846BDE8F08B13B53F
:10038000084318BF4FF0FF300146AFF30080BDE8CF
:100390001C40704770477047704710B500F008F870
:1003A000006810BD10B5044600F002F8046010BDEE
:1003B00000487047100000200048704710000020DF
:1003C0007546FFF7F9FFAE4605006946534620F033
:1003D0000700854618B020B5FFF752FFBDE8204062
:1003E0004FF000064FF000074FF000084FF0000BF1
:1003F000AC46ACE8C009ACE8C009ACE8C009ACE860
:10040000C00921F007018D46704710B50446AFF3CF
:1004100000802046BDE81040FFF71DBF01491820AD
:10042000ABBEFEE72600020070470000FEE70000BA
:1004300070470000EFF3108072B600BFFEE70000C7
:1004400070B581B00022009290F83C20012A03D1BF
:100450000221084601B070BDD1F800E00122BEF1D2
:100460000A0F80F83C200BD31FFA8EF25200066868
:1004700012FA8EF2A2F11E0306F10C0205E000BF93
:1004800006680EEB4E0306F110024FF0070C1568DC
:100490000CFA03F4A54315608D68146805FA03F39C
:1004A000234313604968062906D801EB8101053909
:1004B00006F134020AE000BF0C2901EB810187BF7D
:1004C000413906F12C02233906F130021F2314684A
:1004D0008B4024EA030342F2043C1360C4F2010C93
:1004E0001FFA8EF3146803FA01F1ACF5417321434E
:1004F0009E4211603ED1BEF1120F07D1DCF8001010
:1005000041F48001CCF8001034E000BF2EF001016E
:1005100010292FD1DCF80010BEF1100F41F40001BA
:10052000CCF8001026D140F20C01C2F2000109689B
:100530004DF68362C4F21B32A1FB0212910C01EB57
:100540008101490000910099A1B100990139009100
:10055000009979B1009901390091009951B1009940
:1005600001390091009929B1009901390091009950
:100570000029EAD1002180F83C10084601B070BD86
:10058000002804BF0120704710B50446006C002805
:100590003ED0206CC00645D4206C41F20211884345
:1005A000023042F204312064C4F20101086820F4F0
:1005B000403008600A6894E809101A43D4F810E043
:1005C0000A604168012321F4807141604168C0F6EE
:1005D000007341EA0E214160416821F040714160A1
:1005E000416841EA0C014160816821F40061816049
:1005F000E168826811438160A16A8268994222F0B1
:1006000070628260826813D122F0405119E000BF0D
:10061000204600F065F80020606484F83C00206CFF
:10062000C006B9D50120002184F83C1010BD00BFE0
:1006300011438160816821F040518160E16A8268E4
:1006400011438160816821F0020181608168227E0E
:1006500094F8203041EA42018160416883B141F45D
:100660000061416041684EF2000221F46041416046
:10067000616ACFF6FF72436802EB4131194301E032
:1006800021F400614160C16A40F2000C21F4700164
:10069000C162E2696169CFF6F07CC36A0CEB025279
:1006A0001A43C262826822F40072826094F8302099
:1006B000836843EA42228260826822F48062826018
:1006C000826842EA8121816000206064216C0122FD
:1006D00062F301012164002184F83C1010BD000088
:1006E00080B586B042F200010068C4F20101002228
:1006F00088420592049201D006B080BD43F63000D6
:100700000092C4F20200436943F480734361436979
:1007100003F480730093009B0092036843F001038D
:100720000360006800F00100009000980420019030
:100730000320CDE9020201F5604001A900F016F89E
:1007400006B080BDB0B5044600F0F4F8054640F2AE
:100750000000C2F200000078611C18BF044400BF12
:1007600000F0E8F8401BA042FAD3B0BD2DE9F04FED
:1007700082B043F6004C40F60042C4F2010CC4F2D1
:100780000202072300244FF001094FF0000B4FF045
:100790000008904208BF032300933FE0012204F0C9
:1007A0000C030F259D402EEA05059A402A4346F882
:1007B0002720DCF808204B6842EA0A0743F60C457C
:1007C000DE0258BF22EA0A07CCF80870C4F201051D
:1007D0002A689E0242EA0A0758BF22EA0A072F60E7
:1007E000DCF804209E0342EA0A0758BF22EA0A07FF
:1007F000CCF80470DCF80020DB0342EA0A0758BF9B
:1008000022EA0A07CCF800700BF1020B08F101088C
:10081000BBF1200F04F1040400F082800A6809FA99
:1008200008FA12EA0A0FEFD0D1F8049009F0030693
:10083000721E012A16D882680323CF6803FA0BF5CB
:10084000AA4307FA0BF73A4382604268EF43C9F3C1
:10085000001522EA0A0205FA08F54FEA480E2A4373
:10086000426009E0032202FA0BF2D743032EDE4670
:1008700002D1DE4603261DE0C2688D683A4005FAC3
:100880000EF52A43022EC26014D16FF0030202EA71
:1008900058020244D2F8209004F01C060F230D6980
:1008A000B34029EA0303B5402B431362D1F8049007
:1008B00009F00306026806FA0EF33A401A4319F4E7
:1008C000403F4FF0010902609ED0002243F64407EA
:1008D0000192C4F202073B68ACF57E7643F4804394
:1008E0003B603B684FEA980703F480430193019B08
:1008F000002356F827E0C4F2020398423FF44FAFBA
:1009000040F20042C4F2020290423FF447AF40F688
:100910000002C4F202029042009A08BF02223EE79F
:1009200002B0BDE8F08F0000002A08BF0904816111
:100930007047000049F2FC00C2F2020000687047F4
:1009400040F2000049F2FC01C2F20000C2F20201D2
:1009500000780A68104408607047000080B543F6CC
:100960000040C4F20200016841F4007101600168B6
:1009700041F480610160016841F4807101600320ED
:1009800000F074F80F2000F005F800F027F80020C0
:1009900080BD000070B540F20006C2F2000640F2D1
:1009A0000C013278C2F200014FF47A730968B3FB8C
:1009B000F2F20446B1FBF2F1084600F0D1FC0F2C34
:1009C0004FF0010508D838B94FF0FF30214600221A
:1009D000002500F01FF87460284670BD82B000202A
:1009E00043F640010190C4F202014A6842F4804299
:1009F0004A604A6802F480420192019A00900868B5
:100A000040F080500860086800F080500090009826
:100A100002B0704710B54EF60C5CCEF2000CDCF85C
:100A20000030C3F3022E8EF00704042C28BF0424E8
:100A3000BEF103034FF0FF3E0EFA04F438BF00236B
:100A4000A14399400EFA03F39A43114300F00F02B9
:100A5000043A624409010C3200F16043B0F1FF3FF7
:100A6000C8BF03F56442117010BD00004EF60C5172
:100A7000CEF200010A684FF6FF031A4060F30A2223
:100A800042F0806040F0FD70086070472DE9F04151
:100A9000002800F08B8043F60808C4F202080446E0
:100AA000D8F8F8030D4600F00700884207D288F80E
:100AB000F853D8F8F80300F00700A84276D1206870
:100AC000810717D5410705D5D8F8001041F4E0514A
:100AD000C8F80010010705D5D8F8001041F46041AE
:100AE000C8F80010D8F80010A26821F0F0011143F6
:100AF000C8F80010C0073FD1D8F8F80300F007008D
:100B0000A84207D988F8F853D8F8F80300F007008E
:100B1000A8424BD12068410707D5D8F80010E268F9
:100B200021F4E0511143C8F80010000708D5D8F8A7
:100B30000000216920F4604040EAC100C8F80000CC
:100B400000F054F8D8F8001048F61E52C1F3031113
:100B5000C0F60002515C40F20C0220FA01F140F2B2
:100B60000400C2F200000068C2F200021160FFF748
:100B700011FF0020BDE8F0816068811E022907D2C4
:100B800058F8081C89015CBF0120BDE8F08111E024
:100B9000012807D158F8081C89035CBF0120BDE873
:100BA000F08107E058F8081C890703D40120BDE84C
:100BB000F08100BFD8F8001021F003010843C8F805
:100BC0000000FFF7B7FE064641F28837D8F800006C
:100BD000616800F00C00B0EB810F8DD0FFF7AAFE2A
:100BE000801BB842F2D90320BDE8F08110B543F66E
:100BF0000404C4F20204606800F00C0008280BD062
:100C0000042819BF42F20040C0F2F40047F6400049
:100C1000C0F27D1010BD00BF206821682368490222
:100C200047F64001C0F27D1100F03F02C3F3881087
:100C30005CBF42F20041C0F2F401A1FB00010023BD
:100C4000FFF730FB21680222C1F3014102EB4101B1
:100C5000B0FBF1F010BD00002DE9F04182B000289A
:100C600070D00446007843F60006C007C4F20206BE
:100C70000BD0B06800F00C00042840F0A78030686A
:100C8000800302D5606800285CD0207880071AD5E0
:100C9000B06810F00C0F09D0B06800F00C00082804
:100CA00040F0AE807068400200F1AA803068800792
:100CB00002D5E068012845D13068216920F0F800AC
:100CC00040EAC1003060207800073FD42078400718
:100CD00054D4A5698DB3B06800F00C00082840F02A
:100CE000C380012D2ED07068E16900F480028A4231
:100CF00028D1216A00F03F028A4223D147F6C07111
:100D0000626A0140B1EB821F1CD1A26A0023CFF6B8
:100D1000FF7303EBC23200F440316FF30F029142D4
:100D200010D1E16A00F07062B2EB016F0AD1216B61
:100D300000F0E040B0EB017F04D1002002B0BDE83C
:100D4000F08100BF012002B0BDE8F0816069002899
:100D500040F20000C4F2472076D00121C0F8801E86
:100D6000FFF7E8FD054600BF706F8007AED4FFF7C0
:100D7000E1FD401B0228F7D9DDE000BF306C10F028
:100D800080580AD100200190306C40F080503064CF
:100D9000306C00F080500190019847F20007C4F2D7
:100DA00000073868C00541D4386840F48070386066
:100DB000FFF7C0FD054600BF3868C00536D4FFF711
:100DC000B9FD401B0228F7D9B5E000BFB06800F0BC
:100DD0000C00082803D1706840023FF550AF6068EE
:100DE000B0F5803F07D0B0F5A02F40F08D8030687F
:100DF00040F480203060306840F4803030608DE016
:100E0000E068002852D00020C4F247200121016090
:100E1000FFF790FD054600BF306880073FF54CAFF7
:100E2000FFF788FD401B0228F6D984E0A06801285E
:100E300005D005284ED1306F40F004003067306F88
:100E400040F0010030674FE00021C0F8801EFFF73E
:100E500071FD0546706F80077FF538AFFFF76AFDBB
:100E6000401B0228F6D966E00027C4F2472700207D
:100E70003866FFF75FFD022D05460BD13068800113
:100E80005ED5FFF757FD401B02284FF00300F5D950
:100E900054E700BF306880017FF54FAFFFF74AFD90
:100EA000401B02284FF00300F4D947E70020C4F2AA
:100EB000472000210160FFF73DFD054630688007AF
:100EC0007FF501AFFFF736FD401B02284FF003000E
:100ED000F4D933E7316F002821F001013167316F18
:100EE00021F00401316751D0FFF724FD054641F29E
:100EF000883700BF306F80075AD4FFF71BFD401BB7
:100F0000B842F7D917E000BF3168002821F48031DA
:100F10003160316821F48021316053D0FFF70AFD40
:100F2000054600BF306880033FF5AFAEFFF702FD16
:100F3000401B6428F6D9032002B0BDE8F08100BF51
:100F400004F11C052FCD246B08430021CFF6FF715F
:100F500040EA821001EBC3316FF30F0140EA0560F4
:100F6000084340EA0470706001203866FFF7E2FC35
:100F7000044600BF306880013FF5DFAEFFF7DAFCC2
:100F8000001B02284FF00300F4D9D7E6FFF7D2FC8C
:100F9000054641F2883700BF306F800708D5FFF75C
:100FA000C9FC401BB8424FF00300F5D9C6E600BFAC
:100FB000B8F1000F7FF48DAE306C20F080503064BB
:100FC00087E600BFFFF7B6FC054600BF3068800328
:100FD0007FF55BAEFFF7AEFC401B64284FF00300CB
:100FE000F4D9ABE670B538B10446406A30B10020A0
:100FF000206104F1140007E0012070BD6068B0F5C5
:10100000827F03D004F11C00002101600026A6624B
:1010100094F8550020B9204684F8546000F03CF85C
:10102000022084F8550094E80F0001F482710568ED
:1010300002F4044225F040050560114403F4006207
:101040002369114403F002026369114403F00102B1
:10105000A369E569114403F40072114405F03802F4
:10106000256A114405F08002A56A114305F4005277
:1010700011430160626A042101EA134102F0100287
:1010800011444160C16921F40061C1610120A6657C
:1010900084F85500304670BD80B586B0016843F2D3
:1010A0000000C4F20100814202D006B080BD00BF42
:1010B000002143F630020191C4F20202536900F5A7
:1010C000504043F480535361536903F480530193B8
:1010D000019B0191136843F001031360126802F051
:1010E00001020192019AA02201920222CDE902217D
:1010F000032104910521059101A9FFF737FB06B0F3
:1011000080BD00002DE9F04383B0044690F8540000
:10111000012803D1022003B0BDE8F0834FF001099C
:101120001D4616460F4684F85490FFF703FC94F8CA
:101130005510012974D18046002F4FF0010018BFCF
:10114000002E00F0D8800320002184F85500A1650E
:10115000C4E90C76A663E163A4F84010A4F8421039
:10116000A0686164B0F5004F2068A16407D10168F0
:1011700021F040010160016841F480410160016893
:10118000490603D4016841F0400101606168731EA3
:10119000E268B1FA81F1B3FA83F349095B09B2F568
:1011A000006F41EA03013DD131B137F8021BC16044
:1011B0002763A16B0139A163A16B00296CD0691C65
:1011C0001BD000BF8168890706D4FFF7B3FBA0EBF3
:1011D0000800A84208D3C1E0216B31F8022BC2609D
:1011E0002163A06B0138A063A06B002854D0206855
:1011F00081688907E9D5EFE720688168890703D40A
:10120000FFF798FB08E000BF216B31F8022BC260AA
:101210002163A06B0138A063A06B0028ECD13BE0F8
:10122000022068E039B139780173206BA16B01307D
:101230002063481EA063A06B70B3681C0BD11BE039
:10124000216B09780173206BA16B01302063481E6C
:10125000A063A06B00B3206881688907F0D4FFF712
:1012600069FBA0EB0800A842F3D3032043E000BFD2
:10127000FFF760FBA06B78B1206881688907F7D51C
:10128000216B09780173206BA16B01302063481E2C
:10129000A063A06B0028EFD140F20C00C2F2000066
:1012A000006849F68171C1F25E61A0FB0101480D41
:1012B0004FF47A71484302906068B0F5827F23D181
:1012C000204680212A46434605F04CFF28B1A06DF8
:1012D00040F02000A0652020A065A06838B900205B
:1012E00001902068C1680191806801900198A06D0B
:1012F000002818BF0120002184F8559084F854106C
:1013000003B0BDE8F08300BF02980028E5D0029842
:1013100001380290206880680006DED50298002817
:10132000DBD0029801380290206880680006D4D58E
:1013300002980028D1D00298013802902068806875
:101340000006CAD502980028C7D00298013802903A
:10135000206880680006D7D4BFE700BF0320CAE733
:10136000411E0020B0EB116F1CBF012070474EF2F0
:101370001002CEF2000251604EF62351CEF200016F
:10138000F0230B70072190601160704710B590F842
:101390003C20012A4FF0020251D080F83D20026823
:1013A000D2F804E0D2F808C00C682EF07003234392
:1013B00041F2FF74C4F20004A24253600EDC40F21A
:1013C000FF73C4F200039A4216DCB2F1804F2BD0B7
:1013D00040F20043C4F2000324E000BF40F2FF33B8
:1013E000C4F201039A4213DC41F60003C4F2000385
:1013F0009A4219D0002313E040F60003C4F2000320
:101400009A4211D040F60043C4F200030AE000BF44
:1014100044F20003C4F201039A4205D040F20043B3
:10142000C4F201039A4204D149682CF080031943A5
:1014300091600121002280F83D1080F83C20104688
:1014400010BD0000002804BF0120704710B50446FD
:1014500090F83D0028B9002084F83C00204600F0B8
:101460001FF8022084F83D002068211D05F050FF80
:10147000012084F8460084F83E0084F83F0084F898
:10148000400084F8410084F8420084F8430084F866
:10149000440084F8450084F83D00002010BD0000A1
:1014A00081B0006840F60041C4F20001884201D0DA
:1014B00001B070470020009043F64000C4F20200E3
:1014C000016841F008010160006800F00800009028
:1014D000009801B07047000090F83D1001291CBF32
:1014E00001207047022180F83D10006841F2FF7131
:1014F000C4F2000188420DDC40F2FF71C4F2000129
:10150000884215DCB0F1804F2AD040F20041C4F28D
:10151000000123E040F2FF31C4F20101884213DCF4
:1015200041F60001C4F20001884219D0002113E005
:1015300040F60001C4F20001884211D040F600419B
:10154000C4F200010AE000BF44F20001C4F201014C
:10155000884205D040F20041C4F20101884206D120
:10156000816801F00701062904BF00207047016867
:1015700041F00101016000207047000080B590F843
:101580003C20012A4FF0020200F0C28080F83D208A
:10159000D0F800C04FF67772DCF8083023EA020278
:1015A000CCF808200B684F2B28DC1F2B44DD202BA8
:1015B00045D0302B43D0402B40F0AC80D1F804E034
:1015C000C968DCF82030DCF8202022F00102CCF8D9
:1015D0002020DCF8182022F0F00242EA011123F06A
:1015E0000A0242EA0E02CCF81810CCF82020DCF8EF
:1015F000081041F0470121F0300180E06F2B27DD1A
:10160000B3F5005F48D0B3F5805F7AD0702B40F01F
:101610008180D1E901E3C968DCF8082043EA0E03C0
:1016200022F47F4243EA01211143CCF80810DCF890
:10163000081041F0770162E00BB1102B6AD1DCF8A1
:10164000081021F07001194341F0070157E000BF75
:10165000502B35D0602B5DD1D1F804E0C968DCF89F
:10166000203023F01003CCF82030DCF81830DCF800
:10167000202023F4704322F0A00243EA013142EA21
:101680000E12CCF81810CCF82020DCF8081041F02D
:10169000670121F0100132E0D1E901E3C968DCF80B
:1016A000082043EA0E0322F47F4243EA012111435A
:1016B000CCF80810DCF8081041F480411FE000BFAE
:1016C000D1F804E0C968DCF82030DCF8202022F0F2
:1016D0000102CCF82020DCF8182022F0F00242EAC7
:1016E000011123F00A0242EA0E02CCF81810CCF8DD
:1016F0002020DCF8081041F0570121F02001CCF83F
:1017000008100022012180F83D10002180F83C10D3
:10171000104680BD0122F5E7FEE700002DE9F04FFD
:1017200083B040F2184A0193C4F2020A8023CAF837
:1017300000304023CAF8003000238DF80B309DF8AC
:101740000B70022F24D800BF9DF80B7001378DF865
:101750000B709DF80B70022F1AD89DF80B70013793
:101760008DF80B709DF80B70022F11D89DF80B703F
:1017700001378DF80B709DF80B70022F08D89DF87B
:101780000B7001378DF80B709DF80B70032FDBD3B6
:101790004FF480065AF8087CCAF800608DF80B30C8
:1017A0009DF80B30022B23D89DF80B3001338DF8B8
:1017B0000B309DF80B30022B1AD89DF80B300133FB
:1017C0008DF80B309DF80B30022B11D89DF80B30A3
:1017D00001338DF80B309DF80B30022B08D89DF8A3
:1017E0000B3001338DF80B309DF80B30032BDBD31E
:1017F0003B0600F1A7800B0A00274FF0800C4FF04A
:10180000400E4FF48006002506E000BF5B00072D68
:1018100005F1010580F0D0805CB2B4F1FF3F4FF0DC
:101820008004C8BF4FF40004CAF800408DF80B7064
:101830009DF80B40022C23D89DF80B4001348DF805
:101840000B409DF80B40022C1AD89DF80B40013438
:101850008DF80B409DF80B40022C11D89DF80B40E1
:1018600001348DF80B409DF80B40022C08D89DF8F0
:101870000B4001348DF80B409DF80B40032CDBD35B
:10188000CAF800E08DF80B709DF80B40022C23D8AD
:101890009DF80B4001348DF80B409DF80B40022C55
:1018A0001AD89DF80B4001348DF80B409DF80B4081
:1018B000022C11D89DF80B4001348DF80B409DF897
:1018C0000B40022C08D89DF80B4001348DF80B40DA
:1018D0009DF80B40032CDBD3072DCAF8006008BF2E
:1018E000CAF800C08DF80B709DF80B40022C3FF633
:1018F0008DAF00BF9DF80B4001348DF80B409DF873
:101900000B40022C3FF682AF9DF80B4001348DF85E
:101910000B409DF80B40022C3FF678AF9DF80B4032
:1019200001348DF80B409DF80B40022C3FF66EAF52
:101930009DF80B4001348DF80B409DF80B40032CB3
:10194000D8D363E74FF40000CAF800004020CAF87B
:10195000000000208DF80B009DF80B00022800F21B
:101960001B8500BF9DF80B0001308DF80B009DF822
:101970000B00022800F210859DF80B0001308DF855
:101980000B009DF80B00022800F206859DF80B0065
:1019900001308DF80B009DF80B00022800F2FC844A
:1019A0009DF80B0001308DF80B009DF80B0003280B
:1019B000D8D300F0F1BC00BF8023CAF80030402328
:1019C000CAF8003000238DF80B309DF80B70022F01
:1019D00024D800BF9DF80B7001378DF80B709DF86F
:1019E0000B70022F1AD89DF80B7001378DF80B7011
:1019F0009DF80B70022F11D89DF80B7001378DF8F0
:101A00000B709DF80B70022F08D89DF80B700137F2
:101A10008DF80B709DF80B70032FDBD34FF480060D
:101A20005AF8087CCAF800608DF80B309DF80B302E
:101A3000022B23D89DF80B3001338DF80B309DF825
:101A40000B30022B1AD89DF80B3001338DF80B3078
:101A50009DF80B30022B11D89DF80B3001338DF817
:101A60000B309DF80B30022B08D89DF80B3001335A
:101A70008DF80B309DF80B30032BDBD33B0600F1C8
:101A8000A58000234FF0800C40264FF480040025F1
:101A900006E000BF4900072D05F1010580F0CE806A
:101AA0004FB2B7F1FF3F4FF08007C8BF4FF40007B8
:101AB000CAF800708DF80B309DF80B70022F23D8F8
:101AC0009DF80B7001378DF80B709DF80B70022F8D
:101AD0001AD89DF80B7001378DF80B709DF80B70BC
:101AE000022F11D89DF80B7001378DF80B709DF8FF
:101AF0000B70022F08D89DF80B7001378DF80B7012
:101B00009DF80B70032FDBD3CAF800608DF80B3003
:101B10009DF80B70022F23D89DF80B7001378DF8BC
:101B20000B709DF80B70022F1AD89DF80B700137BF
:101B30008DF80B709DF80B70022F11D89DF80B706B
:101B400001378DF80B709DF80B70022F08D89DF8A7
:101B50000B7001378DF80B709DF80B70032FDBD3E2
:101B6000072DCAF8004008BFCAF800C08DF80B3036
:101B70009DF80B70022F3FF68DAF00BF9DF80B70E4
:101B800001378DF80B709DF80B70022F3FF682AF76
:101B90009DF80B7001378DF80B709DF80B70022FBC
:101BA0003FF678AF9DF80B7001378DF80B709DF8FC
:101BB0000B70022F3FF66EAF9DF80B7001378DF85A
:101BC0000B709DF80B70032FD8D363E74FF4000020
:101BD000CAF800004020CAF8000000208DF80B0071
:101BE0009DF80B00022800F2D78300BF9DF80B0080
:101BF00001308DF80B009DF80B00022800F2CC8319
:101C00009DF80B0001308DF80B009DF80B000228A9
:101C100000F2C2839DF80B0001308DF80B009DF897
:101C20000B00022800F2B8839DF80B0001308DF8FC
:101C30000B009DF80B000328D8D3ADE38021CAF830
:101C400000104021CAF8001000218DF80B109DF8FB
:101C50000B30022B24D800BF9DF80B3001338DF8D8
:101C60000B309DF80B30022B1AD89DF80B30013346
:101C70008DF80B309DF80B30022B11D89DF80B30EE
:101C800001338DF80B309DF80B30022B08D89DF8EE
:101C90000B3001338DF80B309DF80B30032BDBD369
:101CA0004FF480075AF8083CCAF800708DF80B1002
:101CB0009DF80B10022923D89DF80B1001318DF8E7
:101CC0000B109DF80B1002291AD89DF80B1001314A
:101CD0008DF80B109DF80B10022911D89DF80B10F0
:101CE00001318DF80B109DF80B10022908D89DF8D2
:101CF0000B1001318DF80B109DF80B100329DBD36D
:101D0000190600F131818021CAF800104021CAF87B
:101D1000001000218DF80B109DF80B30022B23D8FA
:101D20009DF80B3001338DF80B309DF80B30022BF2
:101D30001AD89DF80B3001338DF80B309DF80B301D
:101D4000022B11D89DF80B3001338DF80B309DF824
:101D50000B30022B08D89DF80B3001338DF80B3077
:101D60009DF80B30032BDBD34FF40003CAF800308F
:101D70008DF80B109DF80B10022923D89DF80B103D
:101D800001318DF80B109DF80B1002291AD89DF81F
:101D90000B1001318DF80B109DF80B10022911D892
:101DA0009DF80B1001318DF80B109DF80B100229D6
:101DB00008D89DF80B1001318DF80B109DF80B1011
:101DC0000329DBD34FF480010023CAF800108DF8FB
:101DD0000B309DF80B70022F24D800BF9DF80B70BC
:101DE00001378DF80B709DF80B70022F1AD89DF8F3
:101DF0000B7001378DF80B709DF80B70022F11D806
:101E00009DF80B7001378DF80B709DF80B70022F49
:101E100008D89DF80B7001378DF80B709DF80B708A
:101E2000032FDBD340F0010080274026002505E08A
:101E30004000072D05F1010580F0CE8044B2B4F1D9
:101E4000FF3F4FF08004C8BF4FF40004CAF80040C1
:101E50008DF80B309DF80B40022C23D89DF80B40D9
:101E600001348DF80B409DF80B40022C1AD89DF8D8
:101E70000B4001348DF80B409DF80B40022C11D81B
:101E80009DF80B4001348DF80B409DF80B40022C5F
:101E900008D89DF80B4001348DF80B409DF80B409D
:101EA000032CDBD3CAF800608DF80B309DF80B4093
:101EB000022C23D89DF80B4001348DF80B409DF87F
:101EC0000B40022C1AD89DF80B4001348DF80B40C2
:101ED0009DF80B40022C11D89DF80B4001348DF871
:101EE0000B409DF80B40022C08D89DF80B400134A4
:101EF0008DF80B409DF80B40032CDBD3072DCAF85F
:101F0000001008BFCAF800708DF80B309DF80B4028
:101F1000022C3FF68DAF00BF9DF80B4001348DF8C9
:101F20000B409DF80B40022C3FF682AF9DF80B4012
:101F300001348DF80B409DF80B40022C3FF678AF32
:101F40009DF80B4001348DF80B409DF80B40022C9E
:101F50003FF66EAF9DF80B4001348DF80B409DF8B5
:101F60000B40032CD8D363E74FF40000CAF80000FD
:101F70004020CAF8000000208DF80B009DF80B00EF
:101F8000022800F2098200BF9DF80B0001308DF895
:101F90000B009DF80B00022800F2FE819DF80B005B
:101FA00001308DF80B009DF80B00022800F2F4813F
:101FB0009DF80B0001308DF80B009DF80B000228F6
:101FC00000F2EA819DF80B0001308DF80B009DF8BE
:101FD0000B000328D8D3DFE18020CAF8000040209E
:101FE000CAF8000000208DF80B009DF80B100229A4
:101FF00024D800BF9DF80B1001318DF80B109DF80F
:102000000B1002291AD89DF80B1001318DF80B1016
:102010009DF80B10022911D89DF80B1001318DF895
:102020000B109DF80B10022908D89DF80B100131F8
:102030008DF80B109DF80B100329DBD34FF48003B0
:102040005AF8081CCAF800308DF80B009DF80B00F8
:10205000022823D89DF80B0001308DF80B009DF865
:102060000B0002281AD89DF80B0001308DF80B00E8
:102070009DF80B00022811D89DF80B0001308DF857
:102080000B009DF80B00022808D89DF80B000130CA
:102090008DF80B009DF80B000328DBD3080600F138
:1020A0004981002A00F080816FF00100550000EBAB
:1020B000420700244FF0400B4FF480064FF0800899
:1020C0004FF0000909E000BFCAF8008009F10200E2
:1020D0001FFA80F9A94580F0678100F0B3FF0199EC
:1020E000494448704FF40000CAF80000CAF800B034
:1020F0008DF80B409DF80B00022823D89DF80B00AB
:1021000001308DF80B009DF80B0002281AD89DF8BD
:102110000B0001308DF80B009DF80B00022811D840
:102120009DF80B0001308DF80B009DF80B00022884
:1021300008D89DF80B0001308DF80B009DF80B00BE
:102140000328DBD3CAF800608DF80B409DF80B0024
:10215000022823D89DF80B0001308DF80B009DF864
:102160000B0002281AD89DF80B0001308DF80B00E7
:102170009DF80B00022811D89DF80B0001308DF856
:102180000B009DF80B00022808D89DF80B000130C9
:102190008DF80B009DF80B000328DBD3CAF80080F4
:1021A00000F050FF0199B94501F8090060D1CAF863
:1021B0000080CAF800B08DF80B409DF80B00022893
:1021C00024D800BF9DF80B0001308DF80B009DF85E
:1021D0000B0002281AD89DF80B0001308DF80B0077
:1021E0009DF80B00022811D89DF80B0001308DF8E6
:1021F0000B009DF80B00022808D89DF80B00013059
:102200008DF80B009DF80B000328DBD3CAF80060A3
:102210008DF80B409DF80B0002283FF657AF00BF2A
:102220009DF80B0001308DF80B009DF80B00022883
:102230003FF64CAF9DF80B0001308DF80B009DF878
:102240000B0002283FF642AF9DF80B0001308DF8DD
:102250000B009DF80B0002283FF638AF9DF80B00ED
:1022600001308DF80B009DF80B000328D8D32DE723
:102270004FF40000CAF80000CAF800B08DF80B4017
:102280009DF80B00022823D89DF80B0001308DF833
:102290000B009DF80B0002281AD89DF80B000130A6
:1022A0008DF80B009DF80B00022811D89DF80B004B
:1022B00001308DF80B009DF80B00022808D89DF81E
:1022C0000B0001308DF80B009DF80B000328DBD3C9
:1022D000CAF800608DF80B409DF80B0002283FF60D
:1022E000F3AE00BF9DF80B0001308DF80B009DF898
:1022F0000B0002283FF6E8AE9DF80B0001308DF888
:102300000B009DF80B0002283FF6DEAE9DF80B0097
:1023100001308DF80B009DF80B0002283FF6D4AE7B
:102320009DF80B0001308DF80B009DF80B00032881
:10233000D8D3C9E64FF40000CAF800004020CAF81C
:10234000000000208DF80B009DF80B00022823D818
:102350009DF80B0001308DF80B009DF80B00022852
:102360001AD89DF80B0001308DF80B009DF80B007A
:10237000022811D89DF80B0001308DF80B009DF854
:102380000B00022808D89DF80B0001308DF80B00D7
:102390009DF80B000328DBD300208021CAF8001031
:1023A00003B0BDE8F08F00BF4FF40000CAF8000092
:1023B0004020CAF8000000208DF80B009DF80B00AB
:1023C000022823D89DF80B0001308DF80B009DF8F2
:1023D0000B0002281AD89DF80B0001308DF80B0075
:1023E0009DF80B00022811D89DF80B0001308DF8E4
:1023F0000B009DF80B00022808D89DF80B00013057
:102400008DF80B009DF80B000328DBD30120802101
:10241000CAF8001003B0BDE8F08F00002DE9F041CC
:1024200081B040F2184CC4F2020C8027CCF8007046
:102430004027CCF8007000278DF803709DF80360EA
:10244000022E23D89DF8036001368DF803609DF8B5
:102450000360022E1AD89DF8036001368DF80360E0
:102460009DF80360022E11D89DF8036001368DF8A7
:1024700003609DF80360022E08D89DF803600136C2
:102480008DF803609DF80360032EDBD34FF4000644
:10249000CCF800608DF803709DF80370022F23D8EC
:1024A0009DF8037001378DF803709DF80370022FBB
:1024B0001AD89DF8037001378DF803709DF80370EA
:1024C000022F11D89DF8037001378DF803709DF825
:1024D0000370022F08D89DF8037001378DF8037040
:1024E0009DF80370032FDBD34FF4800E0024CCF84B
:1024F00000E08DF803409DF80350022D24D800BF62
:102500009DF8035001358DF803509DF80350022DBE
:102510001AD89DF8035001358DF803509DF80350EB
:10252000022D11D89DF8035001358DF803509DF808
:102530000350022D08D89DF8035001358DF8035043
:102540009DF80350032DDBD300F0FE004FF0800810
:102550004026002706E000BF4000072F07F10107D3
:1025600080F0968045B2B5F1FF3F4FF08005C8BFBF
:102570004FF40005CCF800508DF803409DF803504F
:10258000022D23D89DF8035001358DF803509DF896
:102590000350022D1AD89DF8035001358DF80350D1
:1025A0009DF80350022D11D89DF8035001358DF888
:1025B00003509DF80350022D08D89DF803500135B3
:1025C0008DF803509DF80350032DDBD3CCF8006049
:1025D0008DF803409DF80350022D23D89DF8035039
:1025E00001358DF803509DF80350022D1AD89DF83F
:1025F000035001358DF803509DF80350022D11D87A
:102600009DF8035001358DF803509DF80350022DBD
:1026100008D89DF8035001358DF803509DF80350FC
:10262000032DDBD3072FCCF800E008BFCCF80080E7
:102630008DF803409DF80350022D3FF68DAF00BF8B
:102640009DF8035001358DF803509DF80350022D7D
:102650003FF682AF9DF8035001358DF803509DF889
:102660000350022D3FF678AF9DF8035001358DF8E9
:1026700003509DF80350022D3FF66EAF9DF80350B6
:1026800001358DF803509DF80350032DD8D363E72F
:102690008020CCF800004020CCF8000000208DF80D
:1026A00003009DF80370022F24D800BF9DF803702B
:1026B00001378DF803709DF80370022F1AD89DF82A
:1026C000037001378DF803709DF80370022F11D845
:1026D0009DF8037001378DF803709DF80370022F89
:1026E00008D89DF8037001378DF803709DF80370CA
:1026F000032FDBD34FF480065CF8087CCCF8006035
:102700008DF803009DF80300022823D89DF80300EC
:1027100001308DF803009DF8030002281AD89DF8B7
:10272000030001308DF803009DF80300022811D842
:102730009DF8030001308DF803009DF80300022886
:1027400008D89DF8030001308DF803009DF80300C0
:102750000328DBD3380600F1A780080A00244FF0D5
:10276000800E4FF040084FF48005002706E000BFC0
:102770004000072F07F1010780F0CE8046B2B6F186
:10278000FF3F4FF08006C8BF4FF40006CCF8006052
:102790008DF803409DF80360022E23D89DF8036056
:1027A00001368DF803609DF80360022E1AD89DF85B
:1027B000036001368DF803609DF80360022E11D886
:1027C0009DF8036001368DF803609DF80360022ECA
:1027D00008D89DF8036001368DF803609DF803600A
:1027E000032EDBD3CCF800808DF803409DF8036006
:1027F000022E23D89DF8036001368DF803609DF802
:102800000360022E1AD89DF8036001368DF803602C
:102810009DF80360022E11D89DF8036001368DF8F3
:1028200003609DF80360022E08D89DF8036001360E
:102830008DF803609DF80360032EDBD3072FCCF8DF
:10284000005008BFCCF800E08DF803409DF803600D
:10285000022E3FF68DAF00BF9DF8036001368DF864
:1028600003609DF80360022E3FF682AF9DF803607F
:1028700001368DF803609DF80360022E3FF678AFB5
:102880009DF8036001368DF803609DF80360022E09
:102890003FF66EAF9DF8036001368DF803609DF83A
:1028A0000360032ED8D363E74FF40000CCF8000098
:1028B0004020CCF8000000208DF803009DF80300B4
:1028C000022800F27D8300BF9DF8030001308DF8DF
:1028D00003009DF80300022800F272839DF80300B4
:1028E00001308DF803009DF80300022800F2688390
:1028F0009DF8030001308DF803009DF803000228C5
:1029000000F25E839DF8030001308DF803009DF80E
:1029100003000328D8D353E38020CCF800004020E4
:10292000CCF8000000208DF803009DF80370022F02
:1029300024D800BF9DF8037001378DF803709DF80F
:102940000370022F1AD89DF8037001378DF80370B9
:102950009DF80370022F11D89DF8037001378DF890
:1029600003709DF80370022F08D89DF8037001379B
:102970008DF803709DF80370032FDBD34FF48006AE
:102980005CF8087CCCF800608DF803009DF803002B
:10299000022823D89DF8030001308DF803009DF82C
:1029A000030002281AD89DF8030001308DF80300B7
:1029B0009DF80300022811D89DF8030001308DF81E
:1029C00003009DF80300022808D89DF80300013099
:1029D0008DF803009DF803000328DBD3380600F1CF
:1029E000A58000204FF0800E40264FF48004002781
:1029F00006E000BF4900072F07F1010780F0CE80F5
:102A00004DB2B5F1FF3F4FF08005C8BF4FF4000550
:102A1000CCF800508DF803009DF80350022D23D808
:102A20009DF8035001358DF803509DF80350022D99
:102A30001AD89DF8035001358DF803509DF80350C6
:102A4000022D11D89DF8035001358DF803509DF8E3
:102A50000350022D08D89DF8035001358DF803501E
:102A60009DF80350032DDBD3CCF800608DF80300F4
:102A70009DF80350022D23D89DF8035001358DF8A1
:102A800003509DF80350022D1AD89DF803500135CC
:102A90008DF803509DF80350022D11D89DF8035076
:102AA00001358DF803509DF80350022D08D89DF88C
:102AB000035001358DF803509DF80350032DDBD3EF
:102AC000072FCCF8004008BFCCF800E08DF80300D9
:102AD0009DF80350022D3FF68DAF00BF9DF80350C7
:102AE00001358DF803509DF80350022D3FF682AF5B
:102AF0009DF8035001358DF803509DF80350022DC9
:102B00003FF678AF9DF8035001358DF803509DF8DE
:102B10000350022D3FF66EAF9DF8035001358DF83E
:102B200003509DF80350032DD8D363E74FF4000002
:102B3000CCF800004020CCF8000000208DF8030005
:102B40009DF80300022800F23B8200BF9DF80300BD
:102B500001308DF803009DF80300022800F2308256
:102B60009DF8030001308DF803009DF80300022852
:102B700000F226829DF8030001308DF803009DF8D5
:102B80000300022800F21C829DF8030001308DF83A
:102B900003009DF803000328D8D311E28020CCF86D
:102BA00000004020CCF8000000208DF803009DF8C4
:102BB0000310022924D800BF9DF8031001318DF8BD
:102BC00003109DF8031002291AD89DF80310013153
:102BD0008DF803109DF80310022911D89DF80310F9
:102BE00001318DF803109DF80310022908D89DF8D3
:102BF000031001318DF803109DF803100329DBD376
:102C00004FF480075CF8081CCCF800708DF80300C6
:102C10009DF80300022823D89DF8030001308DF8A9
:102C200003009DF8030002281AD89DF80300013024
:102C30008DF803009DF80300022811D89DF80300C9
:102C400001308DF803009DF80300022808D89DF894
:102C5000030001308DF803009DF803000328DBD347
:102C6000080600F14781002A00F00A814FF0800E2B
:102C7000002140204FF480041D78002606E000BFAC
:102C80006D00072E06F1010680F096806FB2B7F155
:102C9000FF3F4FF08007C8BF4FF40007CCF800702B
:102CA0008DF803109DF80370022F23D89DF8037050
:102CB00001378DF803709DF80370022F1AD89DF824
:102CC000037001378DF803709DF80370022F11D83F
:102CD0009DF8037001378DF803709DF80370022F83
:102CE00008D89DF8037001378DF803709DF80370C4
:102CF000032FDBD3CCF800008DF803109DF8037090
:102D0000022F23D89DF8037001378DF803709DF8CA
:102D10000370022F1AD89DF8037001378DF80370E5
:102D20009DF80370022F11D89DF8037001378DF8BC
:102D300003709DF80370022F08D89DF803700137C7
:102D40008DF803709DF80370032FDBD3072ECCF8AA
:102D5000004008BFCCF800E08DF803109DF8037028
:102D6000022F3FF68DAF00BF9DF8037001378DF83D
:102D700003709DF80370022F3FF682AF9DF8037039
:102D800001378DF803709DF80370022F3FF678AF7E
:102D90009DF8037001378DF803709DF80370022FC2
:102DA0003FF66EAF9DF8037001378DF803709DF804
:102DB0000370032FD8D363E7CCF800E0CCF8000011
:102DC0008DF803109DF80350022D23D89DF8035071
:102DD00001358DF803509DF80350022D1AD89DF847
:102DE000035001358DF803509DF80350022D11D882
:102DF0009DF8035001358DF803509DF80350022DC6
:102E000008D89DF8035001358DF803509DF8035004
:102E1000032DDBD35CF8085CCCF800408DF8031080
:102E20009DF80360022E23D89DF8036001368DF8CB
:102E300003609DF80360022E1AD89DF803600136E6
:102E40008DF803609DF80360022E11D89DF8036091
:102E500001368DF803609DF80360022E08D89DF8B6
:102E6000036001368DF803609DF80360032EDBD309
:102E70002D0673D4013A150403F101037FF4FCAE6F
:102E80004FF40000CCF800004020CCF800000020F7
:102E90008DF803009DF80300022823D89DF8030055
:102EA00001308DF803009DF8030002281AD89DF820
:102EB000030001308DF803009DF80300022811D8AB
:102EC0009DF8030001308DF803009DF803000228EF
:102ED00008D89DF8030001308DF803009DF8030029
:102EE0000328DBD301208021CCF8001001B0BDE81D
:102EF000F08100BF4FF40000CCF800004020CCF877
:102F0000000000208DF803009DF80300022857D828
:102F10009DF8030001308DF803009DF8030002289E
:102F20004ED89DF8030001308DF803009DF8030092
:102F3000022845D89DF8030001308DF803009DF864
:102F4000030002283CD89DF8030001308DF80300EF
:102F50009DF803000328DBD332E000BF4FF40000EC
:102F6000CCF800004020CCF8000000208DF80300D1
:102F70009DF80300022823D89DF8030001308DF846
:102F800003009DF8030002281AD89DF803000130C1
:102F90008DF803009DF80300022811D89DF8030066
:102FA00001308DF803009DF80300022808D89DF831
:102FB000030001308DF803009DF803000328DBD3E4
:102FC00000208021CCF8001001B0BDE8F0810000A5
:102FD00081B040F21840C4F202004FF400010160D9
:102FE0004021016000218DF803109DF80310022993
:102FF00024D800BF9DF8031001318DF803109DF80F
:10300000031002291AD89DF8031001318DF803101E
:103010009DF80310022911D89DF8031001318DF895
:1030200003109DF80310022908D89DF80310013100
:103030008DF803109DF803100329DBD38021016074
:1030400001B070472DE9F04181B040F21840C4F260
:1030500002004021016000218DF802109DF802203D
:10306000022A23D89DF8022001328DF802209DF813
:103070000220022A1AD89DF8022001328DF802207F
:103080009DF80220022A11D89DF8022001328DF805
:1030900002209DF80220022A08D89DF80220013261
:1030A0008DF802209DF80220032ADBD34FF4800222
:1030B00050F808CC02608DF803109DF80310022927
:1030C00024D800BF9DF8031001318DF803109DF83E
:1030D000031002291AD89DF8031001318DF803104E
:1030E0009DF80310022911D89DF8031001318DF8C5
:1030F00003109DF80310022908D89DF80310013130
:103100008DF803109DF803100329DBD340210160E3
:1031100000218DF802109DF80220022A24D800BF59
:103120009DF8022001328DF802209DF80220022A2B
:103130001AD89DF8022001328DF802209DF8022055
:10314000022A11D89DF8022001328DF802209DF844
:103150000220022A08D89DF8022001328DF80220B0
:103160009DF80220032ADBD34FF4800250F808ECCC
:1031700002608DF803109DF80310022924D800BFC7
:103180009DF8031001318DF803109DF803100229FA
:103190001AD89DF8031001318DF803109DF8031023
:1031A000022911D89DF8031001318DF803109DF804
:1031B0000310022908D89DF8031001318DF803107F
:1031C0009DF803100329DBD34021016000218DF815
:1031D00002109DF80220022A24D800BF9DF8022088
:1031E00001328DF802209DF80220022A1AD89DF89B
:1031F000022001328DF802209DF80220022A11D807
:103200009DF8022001328DF802209DF80220022A4A
:1032100008D89DF8022001328DF802209DF8022086
:10322000032ADBD34FF4800250F8088C02608DF83B
:1032300003109DF80310022924D800BF9DF8031045
:1032400001318DF803109DF8031002291AD89DF85A
:10325000031001318DF803109DF80310022911D8D5
:103260009DF8031001318DF803109DF80310022919
:1032700008D89DF8031001318DF803109DF8031054
:103280000329DBD34021002201608DF802209DF844
:103290000210022924D800BF9DF8021001318DF8D8
:1032A00002109DF8021002291AD89DF8021001316F
:1032B0008DF802109DF80210022911D89DF8021015
:1032C00001318DF802109DF80210022908D89DF8EE
:1032D000021001318DF802109DF802100329DBD392
:1032E0004FF4800450F8081C04608DF803209DF80A
:1032F0000320022A24D800BF9DF8032001328DF854
:1033000003209DF80320022A1AD89DF803200132D9
:103310008DF803209DF80320022A11D89DF8032080
:1033200001328DF803209DF80320022A08D89DF869
:10333000032001328DF803209DF80320032ADBD3FC
:103340004022002402608DF802409DF80220022AEB
:1033500024D800BF9DF8022001328DF802209DF88C
:103360000220022A1AD89DF8022001328DF802208C
:103370009DF80220022A11D89DF8022001328DF812
:1033800002209DF80220022A08D89DF8022001326E
:103390008DF802209DF80220032ADBD34FF480052C
:1033A00050F8082C05608DF803409DF80340022C6E
:1033B00024D800BF9DF8034001348DF803409DF8E8
:1033C0000340022C1AD89DF8034001348DF80340C5
:1033D0009DF80340022C11D89DF8034001348DF86C
:1033E00003409DF80340022C08D89DF803400134A7
:1033F0008DF803409DF80340032CDBD340240025C7
:1034000004608DF802509DF80240022C24D800BFC1
:103410009DF8024001348DF802409DF80240022CD4
:103420001AD89DF8024001348DF802409DF8024000
:10343000022C11D89DF8024001348DF802409DF80D
:103440000240022C08D89DF8024001348DF8024059
:103450009DF80240032CDBD34FF4800650F8084C53
:1034600006608DF803509DF80350022D24D800BF4C
:103470009DF8035001358DF803509DF80350022D3F
:103480001AD89DF8035001358DF803509DF803506C
:10349000022D11D89DF8035001358DF803509DF889
:1034A0000350022D08D89DF8035001358DF80350C4
:1034B0009DF80350032DDBD34025002605608DF8D1
:1034C00002609DF80250022D24D800BF9DF80250E2
:1034D00001358DF802509DF80250022D1AD89DF842
:1034E000025001358DF802509DF80250022D11D87E
:1034F0009DF8025001358DF802509DF80250022DC2
:1035000008D89DF8025001358DF802509DF8025000
:10351000032DDBD34FF4800750F8085C07608DF86B
:1035200003609DF80360022E24D800BF9DF803605D
:1035300001368DF803609DF80360022E1AD89DF8BD
:10354000036001368DF803609DF80360022E11D8E8
:103550009DF8036001368DF803609DF80360022E2C
:1035600008D89DF8036001368DF803609DF803606C
:10357000032EDBD34026002706608DF802709DF8ED
:103580000260022E24D800BF9DF8026001368DF83B
:1035900002609DF80260022E1AD89DF80260013682
:1035A0008DF802609DF80260022E11D89DF802602D
:1035B00001368DF802609DF80260022E08D89DF851
:1035C000026001368DF802609DF80260032EDBD3A5
:1035D0004FF4800350F8086C03608DF803709DF879
:1035E0000300022824D800BF9DF8030001308DF8A5
:1035F00003009DF8030002281AD89DF8030001304B
:103600008DF803009DF80300022811D89DF80300EF
:1036100001308DF803009DF80300022808D89DF8BA
:10362000030001308DF803009DF803000328DBD36D
:10363000022000EA9C104FEA0E6340EAD37040007B
:103640004FEA086340EAD3704000090640EAD170AF
:103650004000110640EAD1704000210640EAD170D6
:103660004000290640EAD1704000310640EAD1709E
:10367000C0B201B0BDE8F081B0B581B040F21841F0
:10368000C4F2020100224FF0800C4FF0400E4FF4C4
:103690008003002406E000BF4000072C04F1010471
:1036A00080F0948045B2B5F1FF3F4FF08005C8BF70
:1036B0004FF400050D608DF801209DF80150022D9A
:1036C00024D800BF9DF8015001358DF801509DF8B8
:1036D0000150022D1AD89DF8015001358DF8015086
:1036E0009DF80150022D11D89DF8015001358DF83B
:1036F00001509DF80150022D08D89DF80150013568
:103700008DF801509DF80150032DDBD3C1F800E086
:103710008DF802209DF80250022D23D89DF802500A
:1037200001358DF802509DF80250022D1AD89DF8EF
:10373000025001358DF802509DF80250022D11D82B
:103740009DF8025001358DF802509DF80250022D6F
:1037500008D89DF8025001358DF802509DF80250AE
:10376000032DDBD3072C0B6008BFC1F800C08DF818
:1037700003209DF80350022D8ED800BF9DF8035002
:1037800001358DF803509DF80350022D3FF684AFAC
:103790009DF8035001358DF803509DF80350022D1C
:1037A0003FF67AAF9DF8035001358DF803509DF830
:1037B0000350022D3FF670AF9DF8035001358DF890
:1037C00003509DF80350032DD8D365E701B0B0BD79
:1037D00081B040F21840C4F2020080210160402113
:1037E000016000218DF801109DF80120022A23D8E4
:1037F0009DF8012001328DF801209DF80120022A58
:103800001AD89DF8012001328DF801209DF8012081
:10381000022A11D89DF8012001328DF801209DF86F
:103820000120022A08D89DF8012001328DF80120DC
:103830009DF80120032ADBD34FF4000202608DF8CB
:1038400002109DF80210022924D800BF9DF8021032
:1038500001318DF802109DF8021002291AD89DF846
:10386000021001318DF802109DF80210022911D8C2
:103870009DF8021001318DF802109DF80210022906
:1038800008D89DF8021001318DF802109DF8021041
:103890000329DBD34FF48001016000208DF8030081
:1038A0009DF80300022823D89DF8030001308DF80D
:1038B00003009DF8030002281AD89DF80300013088
:1038C0008DF803009DF80300022811D89DF803002D
:1038D00001308DF803009DF80300022808D89DF8F8
:1038E000030001308DF803009DF803000328DBD3AB
:1038F00001B070472DE9F04F81B040F60004C4F2EA
:1039000002042046202100224FF020084FF0000939
:10391000FDF70AF864206426FCF714FF20462021F6
:103920000122FDF701F83220FCF70CFFCF208DF8C3
:1039300003002046102100221027FCF7F5FF41F27A
:103940004835C2F200050DF10301284601224FF06F
:10395000FF33FDF7D7FB2046102101228DF803909D
:10396000FCF7E2FF0DF10301284601224FF0FF337F
:10397000FDF7C8FBD9208DF8030020461021012255
:10398000FCF7D2FF0DF10301284601224FF0FF336F
:10399000FDF7B8FB30208DF80300204610210122EE
:1039A000FCF7C2FF0DF10301284601224FF0FF335F
:1039B000FDF7A8FBED208DF8030020461021002222
:1039C000FCF7B2FF0DF10301284601224FF0FF334F
:1039D000FDF798FB2046102101228DF80360FCF7CB
:1039E000A3FF0DF10301284601224FF0FF33FDF73D
:1039F00089FB03208DF80300204610210122FCF7EB
:103A000093FF0DF10301284601224FF0FF33FDF72C
:103A100079FB12262046102101228DF80360FCF765
:103A200083FF0DF10301284601224FF0FF33FDF71C
:103A300069FB81208DF80300204610210122FCF74C
:103A400073FF0DF10301284601224FF0FF33FDF70C
:103A500059FBE8208DF80300204610210022FCF7D6
:103A600063FF0DF10301284601224FF0FF33FDF7FC
:103A700049FB85208DF80300204610210122FCF728
:103A800053FF0DF10301284601224FF0FF33FDF7EC
:103A900039FB2046102101228DF80370FCF744FF0A
:103AA0000DF10301284601224FF0FF33FDF72AFBF9
:103AB0007A208DF80300204610210122FCF734FF04
:103AC0000DF10301284601224FF0FF33FDF71AFBE9
:103AD000CB208DF80300204610210022FCF724FFA4
:103AE0000DF10301284601224FF0FF33FDF70AFBD9
:103AF00039208DF80300204610210122FCF714FF25
:103B00000DF10301284601224FF0FF33FDF7FAFAC9
:103B10002C208DF80300204610210122FCF704FF21
:103B20000DF10301284601224FF0FF33FDF7EAFAB9
:103B30002046102101228DF80390FCF7F5FE0DF1CF
:103B40000301284601224FF0FF33FDF7DBFA342052
:103B50008DF80300204610210122FCF7E5FE0DF14F
:103B60000301284601224FF0FF33FDF7CBFA022074
:103B70008DF80300204610210122FCF7D5FE0DF13F
:103B80000301284601224FF0FF33FDF7BBFAF7206F
:103B90008DF80300204610210022FCF7C5FE0DF130
:103BA0000301284601224FF0FF33FDF7ABFA204610
:103BB000102101228DF80380FCF7B6FE0DF1030100
:103BC000284601224FF0FF33FDF79CFAEA208DF8DA
:103BD0000300204610210022FCF7A6FE0DF1030190
:103BE000284601224FF0FF33FDF78CFA20461021C2
:103BF00001228DF80390FCF797FE0DF10301284692
:103C000001224FF0FF33FDF77DFA204610210122FB
:103C10008DF80390FCF788FE0DF103012846012280
:103C20004FF0FF33FDF76EFAC0208DF803002046F9
:103C300010210022FCF778FE0DF103012846012235
:103C40004FF0FF33FDF75EFA1B208DF8030020468E
:103C500010210122FCF768FE0DF103012846012224
:103C60004FF0FF33FDF74EFAC1208DF803002046D8
:103C700010210022FCF758FE0DF103012846012215
:103C80004FF0FF33FDF73EFA2046102101228DF858
:103C90000360FCF749FE0DF10301284601224FF0B5
:103CA000FF33FDF72FFAC5208DF8030020461021C1
:103CB0000022FCF739FE0DF10301284601224FF0E6
:103CC000FF33FDF71FFA08208DF80300204610216E
:103CD00001220826FCF728FE0DF1030128460122E7
:103CE0004FF0FF33FDF70EFA4FF026082046102163
:103CF00001228DF80380FCF717FE0DF10301284621
:103D000001224FF0FF33FDF7FDF9C7208DF80300C6
:103D1000204610210022FCF707FE0DF10301284682
:103D200001224FF0FF33FDF7EDF9B7208DF80300C6
:103D3000204610210122FCF7F7FD0DF10301284672
:103D400001224FF0FF33FDF7DDF936208DF8030037
:103D5000204610210022FCF7E7FD0DF10301284663
:103D600001224FF0FF33FDF7CDF92046102101224B
:103D70008DF80360FCF7D8FD0DF103012846012200
:103D80004FF0FF33FDF7BEF93A208DF803002046CF
:103D900010210022FCF7C8FD0DF103012846012285
:103DA0004FF0FF33FDF7AEF955208DF803002046A4
:103DB00010210122FCF7B8FD0DF103012846012274
:103DC0004FF0FF33FDF79EF9B1208DF80300204638
:103DD00010210022FCF7A8FD0DF103012846012265
:103DE0004FF0FF33FDF78EF92046102101228DF8A8
:103DF0000390FCF799FD0DF10301284601224FF0D5
:103E0000FF33FDF77FF91A272046102101228DF894
:103E10000370FCF789FD0DF10301284601224FF0E4
:103E2000FF33FDF76FF9B6208DF80300204610210F
:103E30000022FCF779FD0DF10301284601224FF025
:103E4000FF33FDF75FF90A208DF8030020461021AB
:103E500001224FF00A0AFCF767FD0DF10301284625
:103E600001224FF0FF33FDF74DF9A2208DF803003A
:103E7000204610210122FCF757FD0DF103012846D1
:103E800001224FF0FF33FDF73DF9F2208DF80300DA
:103E9000204610210022FCF747FD0DF103012846C2
:103EA00001224FF0FF33FDF72DF9204610210122AA
:103EB0008DF80390FCF738FD0DF10301284601222F
:103EC0004FF0FF33FDF71EF92046102100228DF838
:103ED0000380FCF729FD0DF10301284601224FF074
:103EE000FF33FDF70FF901262046102101228DF83E
:103EF0000360FCF719FD0DF10301284601224FF084
:103F0000FF33FDF7FFF8E0208DF803002046102175
:103F10000022FCF709FD0DF10301284601224FF0B4
:103F2000FF33FDF7EFF84FF00F0820461021012274
:103F30008DF80380FCF7F8FC0DF1030128460122FF
:103F40004FF0FF33FDF7DEF84FF01D0B2046102138
:103F500001228DF803B0FCF7E7FC0DF103012846C0
:103F600001224FF0FF33FDF7CDF82046102101224A
:103F70008DF80370FCF7D8FC0DF1030128460122EF
:103F80004FF0FF33FDF7BEF82046102101228DF8D7
:103F900003A0FCF7C9FC0DF10301284601224FF0F4
:103FA000FF33FDF7AFF80D208DF8030020461021F8
:103FB0000122FCF7B9FC0DF10301284601224FF064
:103FC000FF33FDF79FF84FF0070A2046102101222A
:103FD0008DF803A0FCF7A8FC0DF10301284601228F
:103FE0004FF0FF33FDF78EF849208DF8030020468F
:103FF00010210122FCF798FC0DF103012846012253
:104000004FF0FF33FDF77EF866208DF80300204661
:1040100010210122FCF788FC0DF103012846012242
:104020004FF0FF33FDF76EF83B208DF8030020467C
:1040300010210122FCF778FC0DF103012846012232
:104040004FF0FF33FDF75EF82046102101228DF876
:1040500003A0FCF769FC0DF10301284601224FF093
:10406000FF33FDF74FF811208DF803002046102193
:104070000122FCF759FC0DF10301284601224FF003
:10408000FF33FDF73FF82046102101228DF8036031
:10409000FCF74AFC0DF10301284601224FF0FF33E3
:1040A000FDF730F809208DF8030020461021012289
:1040B000FCF73AFC0DF10301284601224FF0FF33D3
:1040C000FDF720F805272046102101228DF8037006
:1040D000FCF72AFC0DF10301284601224FF0FF33C3
:1040E000FDF710F804262046102101228DF8036008
:1040F000FCF71AFC0DF10301284601224FF0FF33B3
:10410000FDF700F8E1208DF8030020461021002281
:10411000FCF70AFC0DF10301284601224FF0FF33A2
:10412000FCF7F0FF2046102101228DF80390FCF7E8
:10413000FBFB0DF10301284601224FF0FF33FCF792
:10414000E1FF18208DF80300204610210122FCF722
:10415000EBFB0DF10301284601224FF0FF33FCF782
:10416000D1FF2046102101228DF803B0FCF7DCFBC3
:104170000DF10301284601224FF0FF33FCF7C2FF87
:1041800002208DF80300204610210122FCF7CCFB11
:104190000DF10301284601224FF0FF33FCF7B2FF77
:1041A0002046102101228DF80380FCF7BDFB0DF1A4
:1041B0000301284601224FF0FF33FCF7A3FF2046FE
:1041C000102101228DF80360FCF7AEFB0DF1030115
:1041D000284601224FF0FF33FCF794FF4FF0360BD7
:1041E0002046102101228DF803B0FCF79DFB0DF154
:1041F0000301284601224FF0FF33FCF783FF13260B
:104200002046102101228DF80360FCF78DFB0DF193
:104210000301284601224FF0FF33FCF773FF4C20C7
:104220008DF80300204610210122FCF77DFB0DF1E3
:104230000301284601224FF0FF33FCF763FF2046BD
:10424000102101228DF803A0FCF76EFB0DF1030194
:10425000284601224FF0FF33FCF754FF204610217F
:1042600001228DF80360FCF75FFB0DF10301284686
:1042700001224FF0FF33FCF745FF204610210122B9
:104280008DF80380FCF750FB0DF103012846012255
:104290004FF0FF33FCF736FF2E208DF80300204649
:1042A00010210122FCF740FB0DF1030128460122F9
:1042B0004FF0FF33FCF726FF2F208DF80300204638
:1042C00010210122FCF730FB0DF1030128460122E9
:1042D0004FF0FF33FCF716FF2046102101228DF826
:1042E0000370FCF721FB0DF10301284601224FF07A
:1042F000FF33FCF707FF2B272046102100228DF803
:104300000370FCF711FB0DF10301284601224FF069
:10431000FF33FCF7F7FE2046102101228DF80390B1
:10432000FCF702FB0DF10301284601224FF0FF3399
:10433000FCF7E8FE2046102101228DF80390FCF7DF
:10434000F3FA0DF10301284601224FF0FF33FCF789
:10435000D9FE01208DF80300204610210122FCF730
:10436000E3FA0DF10301284601224FF0FF33FCF779
:10437000C9FE3F208DF80300204610210122FCF7E2
:10438000D3FA0DF10301284601224FF0FF33FCF769
:10439000B9FE2A262046102100228DF80360FCF782
:1043A000C3FA0DF10301284601224FF0FF33FCF759
:1043B000A9FE2046102101228DF80390FCF7B4FAE3
:1043C0000DF10301284601224FF0FF33FCF79AFE5E
:1043D0002046102101228DF80390FCF7A5FA0DF17B
:1043E0000301284601224FF0FF33FCF78BFE2046E5
:1043F000102101228DF80390FCF796FA0DF10301CC
:10440000284601224FF0FF33FCF77CFEEF208DF8A9
:104410000300204610210122FCF786FA0DF103016A
:10442000284601224FF0FF33FCF76CFE11208DF877
:104430000300204610210022FCF776FA0DF103015B
:10444000284601224FF0FF33FCF75CFE7820FCF792
:1044500079F929208DF80300204610210022FCF76D
:1044600063FA0DF10301284601224FF0FF33FCF7F8
:1044700049FE46F6EC30C2F202002C210181F02107
:1044800001804FF4A0714681878141802046102130
:1044900000228DF803B0FCF747FA0DF1030128461E
:1044A00001224FF0FF33FCF72DFE08208DF80300AA
:1044B000204610210122FCF737FA0DF103012846AE
:1044C00001224FF0FF33FCF71DFEA4F558404FF4D6
:1044D000827185E803020A204FF400624FF40073F2
:1044E000E8622846C5E90329C5E90593C5E90799A6
:1044F000C5E90999FCF776FD002818BFFBF79AFF7C
:1045000040F20800C2F20000008841F2EC3245F2AD
:10451000A0736FF05F01C2F20002C0F2020300BF9D
:10452000571860319942A7F86000A7F86200A7F811
:104530006400A7F86600A7F86800A7F86A00A7F863
:104540006C00A7F86E00A7F87000A7F87200A7F833
:104550007400A7F87600A7F87800A7F87A00A7F803
:104560007C00A7F87E00A7F88000A7F88200A7F8D3
:104570008400A7F88600A7F88800A7F88A00A7F8A3
:104580008C00A7F88E00A7F89000A7F89200A7F873
:104590009400A7F89600A7F89800A7F89A00A7F843
:1045A0009C00A7F89E00A7F8A000A7F8A200A7F813
:1045B000A400A7F8A600A7F8A800A7F8AA00A7F8E3
:1045C000AC00A7F8AE00A7F8B000A7F8B200A7F8B3
:1045D000B400A7F8B600A7F8B800A7F8BA00A7F883
:1045E000BC00A7F8BE009BD100200021EF2240F2C2
:1045F0003F1300F017F8204610210122FCF794F930
:1046000041F2483041F2EC31C2F20000C2F2000146
:104610004FF496324FF0FF33FCF774FD01B0BDE864
:10462000F08F00002DE9F04782B040F60004C4F29C
:104630000204164689460746204610210022984665
:10464000FCF772F946F6EC3A41F24835C2F2020A3A
:10465000C2F200050AF10A01284601224FF0FF3399
:10466000FCF750FD204610210122ADF80470ADF892
:104670000660FCF759F901A9284602224FF0FF33E2
:10468000FCF740FD204610210022FCF74DF90AF10D
:104690000C01284601224FF0FF33FCF733FD204682
:1046A00010210122ADF80090ADF80280FCF73CF932
:1046B0006946284602224FF0FF33FCF723FD2046CF
:1046C00010210022FCF730F90AF1080128460122E6
:1046D0004FF0FF33FCF716FD02B0BDE8F087000095
:1046E0002DE9F0410E460746501E591E1C46154640
:1046F000DDF8188082B28BB238463146FFF792FF60
:1047000040F60000C4F2020010210122FCF70CF96F
:10471000E81BA11B01FB00F241F24830C2F200008D
:1047200041464FF0FF33BDE8F041FCF7EBBC000021
:104730002DE9F04F85B0B0F800E04FF6FF7CE6457C
:1047400000F04A81012A40F09D8001F604320023E6
:10475000ACF11F04B6EE000A15E000BF01EB8E05B8
:1047600015ED1F1A15ED212A31EE021A21EE001A5D
:104770000133DBB201EB8E0530F813E085ED001A52
:10478000E64500F02981CEF3471606FB04E5EDB2BD
:1047900046B1172E0CD19DB11F2DDFD192ED1D1A00
:1047A000E6E700BF85B11F2D12D191ED3E1ADFE77C
:1047B000C5B11F2D1ED101EB8E0595ED1F1AD1E756
:1047C00092ED001AD4E700BF91ED211AD0E700BFA7
:1047D00001EB8E0595ED1F1A95ED212A32EE011A97
:1047E000C4E700BF01EB8E0595ED211A15ED1F2AD8
:1047F000BAE700BF01EB8E0515ED1F2A15ED213A32
:1048000095ED1F1A95ED214AB4EE432AB0EE425AB7
:10481000F1EE10FABCBFB0EE435AB0EE423AB4EE3D
:10482000431AB0EE412AF1EE10FABCBFB0EE432AB3
:10483000B0EE413AB4EE434AF1EE10FAB4EE452A36
:10484000B0EE421AB8BFB0EE434AF1EE10FABCBF68
:10485000B0EE451AB0EE425AB4EE454AB0EE442AE4
:10486000F1EE10FABCBFB0EE452AB0EE445AB4EEF9
:10487000412AF1EE10FAB8BFB0EE421A31EE051A35
:1048800074E700BF41F268221A440023ACF11F0410
:10489000B6EE000A0BE000BF0133DBB201EB8E0580
:1048A00030F813E085ED001AE64500F095804FEAF8
:1048B0005E1505FB04E5EDB21F2D23D8DFE805F0FA
:1048C0001C102222222222222222222222222222E0
:1048D0002222222222222222222222222222108666
:1048E00001EB8E0595ED011A15ED012A31EE021A44
:1048F00021EE001AD0E700BF01EB8E0595ED011AFD
:10490000CAE700BFAEF1020655891FFA86FB5D4576
:10491000E6D016885E45E3D0B2F80CA0DA45DFD0C9
:10492000B2F80280D845DBD0B2F80E90D945D7D086
:1049300097885F450497D3D0178A5F450397CFD0F8
:10494000D7885F450297CBD0578A5F450197C7D07C
:1049500017895F450097C3D00EF102071FFA87FB46
:10496000049F5D45BCD05E4518BFDA45B8D0D84538
:10497000B6D0D945B4D05F45B2D0039D5D45AFD028
:10498000029D5D45ACD0019D5D45A9D0009D5D4572
:10499000A6D001EB8E0595ED011A95ED023A15EDC5
:1049A000024A15ED012A31EE433A32EE444AB0EEA6
:1049B000C35AB0EEC46AB4EE465AF1EE10FAD4BF50
:1049C00033EE011A34EE021A66E700BF01EB8E05E2
:1049D00015ED011A60E700BF05B0BDE8F08F0000DB
:1049E0002DE9F04F81B02DED108B9CB0074641F2C0
:1049F0005C2008440190B7F882069FEDB39B8B467C
:104A000041F24D28B0EE408A01EB08061490B7F849
:104A100080169BF82400B0EE490AB0EE60BAF0EEC2
:104A2000690A13920A96C1F3812403F07DF9B0EE6E
:104A300040AAB0EE490AF0EE60AAF0EE690A2046FC
:104A400003F072F951EC1A0B53EC102B03F022FB1C
:104A500003F032FAB7F9541600EE100A01EE101AFC
:104A6000BBF90200B8EEC11A20EE010ABBF9001032
:104A700001EE100AB8EEC11A30EE410A01EE101A2A
:104A8000B8EEC11A80EE010A10EE100A04F022F806
:104A90009FED8F0B53EC102B03F040FA03F00CFA50
:104AA00015903846594602F0FBF810EE100AB0EEA9
:104AB00040AA04F00FF89FED880B54EC105B2A46D7
:104AC000234603F02BFA03F0F7F900EE100A20EE6C
:104AD000000A1BEE100A20EE00CA03F0FBFF2A4674
:104AE000234603F01BFA03F0E7F900EE100A20EE6C
:104AF000000A20EE000A3CEE401A81EE081A9BF8EC
:104B00004C0F30EE01BAB0EE490AF0EE690A03F03C
:104B10000BF951EC100B03F0CFF91BF80810B0EEB5
:104B2000490A0EEE100AF0EE690A084603F0FCF896
:104B300051EC100B03F0C0F99BF84A16B0EE490A8D
:104B40000FEE100AF0EE690A084603F0EDF851EC9A
:104B5000100B03F0B1F99BED0B0A9FED611AB7EE54
:104B600000CA20EE010A30EE0C0A8CEE000A119009
:104B70004FF07E501790BBF84600BBF9441000B2CE
:104B80001290401A9BED0D2A9BED0C1AB7F8802667
:104B9000DBED088A80238DED160A00EE100ABBF9C2
:104BA0001400B8EEC00A22EE000A02EE100AB7F9AD
:104BB0001406B8EEC22A03EE100AB8EEC33A82EE2B
:104BC00003DA02EE101AF8EEC2BA21EE2B1A31EE19
:104BD0000C1A30EE0C0AB7F9100620EE010A8DED22
:104BE000190AB7F9501600EE100AB8EEC00A8DED9A
:104BF000181A01EE101A2DEE000AB8EEC11A10EEC6
:104C0000100A0F9703EA521A6DEE01AA03F062FF31
:104C10001090B6F90B00BBEE091A3AEE01AA00EEAD
:104C2000100A28EE8A1AB8EEC00A71EE0C8A28EE35
:104C3000800A10EE100A0D4603F04CFF8046DBF8A8
:104C40001C00894603F046FF044615980F4603F002
:104C500041FF9FED250B53EC102B03F05FF922462B
:104C60003B46CDE90D1003F07DFC53EC192BCDE94B
:104C70000B3203F053F942464B4606460F4603F00B
:104C800071FC024610980B46294603F035FE03F0EE
:104C900013F91A909BF825401AEE900ACDF840B00F
:104CA00003F018FF80460A988946B0F90D00A24526
:104CB00000EE100AB8EEC00ACDF854A00A9417D13D
:104CC00028EE800A1CE000BF000000000000F03F5A
:104CD0006666666666660A40666666666612714065
:104CE0000000204200BF00BF6666666666660AC0B6
:104CF000DDF804A09AED001A31EE000A20EE280A31
:104D000010EE100A03F0E6FE02460B463046394626
:104D100003F028FC02460B464046494603F0ECFDF2
:104D200003F0CAF81B900F981499B0F882561AA88D
:104D300000EB81000990119803F0CCFE9FEDD20B9F
:104D400053EC102B03F00EFCCDE907101BEE100AFC
:104D500003F0C0FE8CEE0F9A8CEE0EFACCEE089AA1
:104D6000CDE9051012989FEDCCEB00EE100AF8EE9D
:104D7000C0AA9FEDC70B139FDDF840B04FF04A0863
:104D800051EC100B0026CDE9031002953EE000BF68
:104D9000002016A901EB800191ED001A0BEB8001B8
:104DA0000BEB4000B0F9400091ED0B2A03EE100A26
:104DB000B8EEC33A30EE430A20EE020A21EE2D1A75
:104DC00030EE0C0A21EE000A8CEE800A029DDDE92D
:104DD000137430EE0B0A10EE100A03F07BFE41EC68
:104DE000100B03F009F803F007F851EC100B4A46DA
:104DF000334603F093F803F05FF83860043708F1A6
:104E00000208B4F5407F264600F03681159AC6F3B5
:104E10004010002A06F0010118BF4840A84206F1E0
:104E20000104EBD10F98149430F9160000EE100A2B
:104E30000BEB060090F94C1C90F94D0FB8EEC00A30
:104E400001EE101A2DEE000AB8EEC18A01EE100A2A
:104E5000B8EEC11A10EE100A61EE098A03F03AFEAC
:104E600081460BEB0800B0F902062AEE081A00EEA4
:104E7000100A21EE0F1AB8EEC00A31EE0C1A21EE1C
:104E8000000A10EE100A8A4603F024FE054618EECA
:104E9000900A0C4603F01EFE02460B46DDE90D109B
:104EA00003F060FB02460B46DDE9031003F024FD2E
:104EB0002A46234603F056FB02460B464846514617
:104EC00003F02CF802F0F8FF15990A9A00EE100A88
:104ED0009142139729D0149AB01CF11C9208B30880
:104EE00002EB900003EB9101401A0221019A01EAC2
:104EF000161192ED011A92ED022A4A1E03EE102AB3
:104F00000022A2EB016141F08071B8EEC33A484340
:104F100022EE032A001632EE000A02EE100AB8EE64
:104F2000C22A21EE021A30EE410A09989BED062AA8
:104F300090ED001A3BF8080021EE021A9BED0A8A58
:104F400030EE410A60EE29CA03F080FA02460B46B1
:104F5000DDE9071003F09EF802F0AEFF28EE0A0A22
:104F600030EE0C0A01EE100A60EE01DA2DEEAD0A09
:104F70002DEE8B1A20EE2D0A31EE2C1A20EE010AAE
:104F800010EE100A03F0A6FD41EC100B02F034FF06
:104F900002F032FFDBF83000B0EE408AF0EE608ABB
:104FA00003F098FD04460D4651EC180B22462B46A3
:104FB00003F0D8FA02F080FF07461CEE900A03F0D7
:104FC00089FDCDE911101DEE900A03F083FD56EC2A
:104FD0001E9B83468A46204629464A46334603F0AE
:104FE000C1FADDE90B3202F099FF5A46DDF840B014
:104FF000534603F0B7FA044638460D4603F06AFDFF
:1050000002460B462046294602F088FF02460B4620
:10501000DDE9111003F03EF8DDE9053202F07EFF14
:1050200041EC100B02F0E8FE02F0E6FE51EC100B32
:105030004A46334602F072FF02F03EFFBBF94210CF
:1050400000EE100A01EE101AB8EEC11AB4EE410AD1
:10505000F1EE10FAFFF69CAEB4EE6B0AF1EE10FA28
:1050600002DA012095E600BFB4EE6A0A0320F1EEF1
:1050700010FAB8BF02208CE61CB0BDEC108B01B05A
:10508000BDE8F08F00BF00BF8DEDB5A0F7C6B03E04
:10509000000000000000F0BF66666666661271C020
:1050A0000B464FF410514FF4507201F0AFBE0000A8
:1050B0002DE9F04F81B02DED0A8BADF5576D82468D
:1050C00041F2502008441F90BAF866000C464FF495
:1050D000604141EA401100046FF01F02A1F5005148
:1050E00002EAE04020806180BAF964009FEDF5AAF1
:1050F00082B2920A00EE102AB8EE400A30EE0A1A86
:1051000000286FF39F20BAF8201048BFB0EE410A84
:1051100001EE100A9FEDEC8AB8EE411A002631EE3E
:10512000082AB6EB502F18BFB0EE421A9FEDE72ABF
:10513000BAF86250B4EE009A01F4704020EE02BA60
:1051400021EE09CA03F082F99FEDE10B53EC102B1D
:1051500003F008FA9FEDE00B53EC102B02F0DEFE9B
:1051600002F0AAFE84ED01BA84ED02CAA581206195
:10517000BAF860009FEDDA1AA082BAF8780041B25E
:1051800000EE101AB8EEC00A20EE010A84ED060AFD
:1051900040F30720BAF8701000EE100A9FEDD11A04
:1051A000B8EEC00AC1F3013120EE010A84F82410E0
:1051B00084ED0A0ABAF87E00A4F84260C0F3013117
:1051C0006FF03F0000F11802A4F84020BAF87E20EA
:1051D00041EA8101C2F30312A4F844209AF87F3017
:1051E000490003F00F034B4302FB01F712FB0131AF
:1051F000A4F846104FF4C871A4F84470A4F84810FD
:10520000BAF87E10012201F00F010831BAF87A30A5
:1052100002FA01F15AB201EE101A43F3072100EE2F
:10522000102A02EE101AB8EEC00AB8EEC11AB8EE93
:10523000C22A80EE010A82EE012A4FF60047CFF61D
:10524000FF7784ED0B0A84ED0C2ABAF87C104AB281
:1052500041F3072100EE102A02EE101AB8EEC00A40
:10526000B8EEC22A80EE010A82EE011A4BF21771E3
:10527000CBF65111E1631B2284ED0D0A84ED0E1A69
:10528000BAF84010BAF8743002EB113903F4007226
:105290009B4619B26FF39F2BB6EB522F18BF4BEA08
:1052A000070B0029BAF872104FEA93256FF39F217C
:1052B00000EE101AB8EE400A48BF40EA9325B6EB5C
:1052C000512F30EE081A18BFB0EE410A10EE100A46
:1052D00003F000FC9FED848B0646B0EE480AF0EE2A
:1052E000680A48460F4602F01FFD53EC102B30466B
:1052F000394602F0CFFE02F0DFFD8146BAF97200B6
:1053000000EE109A81B2890A01EE101AB8EE411A25
:1053100031EE0A2A002848BFB0EE421A9FED742AE7
:105320009AF9760021EE021AB7EE002A9AF8701068
:1053300031EE021A08220BEB050821EE00BA02EB4F
:10534000111603F06CF8B0EE480A0746F0EE680A52
:1053500030460D4602F0E8FC53EC102B3846294647
:1053600002F098FE02F0A8FD20629AF871109AF9F6
:10537000770001F00F0503F052F8B0EE480A064638
:10538000F0EE680A28460F4602F0CEFC53EC102BD4
:105390003046394602F07EFE02F08EFDE06141F2B9
:1053A000502044F800901F98219480ED01BAA0F895
:1053B00008B041F25A2024F80080BAF84430BAF814
:1053C00046B0180BBAF848E00E9047904FEA1B30F1
:1053D0000F904B900EF00F0013904C90CEF30310F3
:1053E00014904D90CEF30320BAF84A2015904E90B9
:1053F0004FEA1E3010904F9002F00F001690509020
:10540000C2F3031017905190C2F30320BAF84C6016
:1054100018905290100B1190539006F00F001990B5
:105420005490C6F303101B905590C6F30320BAF8AE
:105430004E801D905690300B1290579008F00F0040
:105440001E905890C8F3031020905990C8F3032081
:1054500022905A90BAF8400003F00F09239050466A
:10546000BAF84200C3F3031CC3F303270BF00F0584
:10547000CBF30311CBF30324B9F1080FCDF868A0E7
:105480004FEA183ACDF81091CDF814C146974895D7
:1054900049914A941C90CDF86CA124BF69F00F008B
:1054A0004490BCF1080F24BF6CF00F004590082F0A
:1054B00024BF67F00F00469018B2B0F1FF3F1DDC2B
:1054C00018E000BF000080C2000080C400008039E6
:1054D000000000000000103F00000000000020401D
:1054E0000000003D00000039000000000000F03F17
:1054F0000000003C0E9860F00F004790082D24BF7C
:1055000065F00F004890082924BF61F00F00499012
:10551000082C24BF64F00F004A900FFA8BF0B0F112
:10552000FF3F03DC0F9860F00F004B9013980828A2
:1055300024BF60F00F004C901498082824BF60F03E
:105540000F004D901598082824BF60F00F004E9072
:105550000FFA8EF0B0F1FF3F03DC109860F00F00FF
:105560004F901698082824BF60F00F0050901798AD
:10557000082824BF60F00F0051901898082824BF15
:1055800060F00F00529010B2B0F1FF3F03DC1198B1
:1055900060F00F0053901998082824BF60F00F00A6
:1055A00054901B98082824BF60F00F0055901D9858
:1055B000082824BF60F00F00569030B2B0F1FF3FD2
:1055C00003DC129860F00F0057901E98082824BF43
:1055D00060F00F0058902098082824BF60F00F005A
:1055E00059902298082824BF60F00F005A900FFAB3
:1055F00088F0B0F1FF3FDCBF6AF00F005B901A9DAE
:10560000B5F85290B5F85470C9F3032209922A9262
:105610004FEA193202922B9207F00F020A922C9253
:10562000C7F303120B922D92C7F30322B5F856600D
:105630000C922E923A0B03922F9206F00F020D92CB
:105640003092C6F303120E923192C6F30322B5F8DC
:1056500058800F923292320B0492339208F00F026C
:1056600010923492C8F3031211923592C8F30322B8
:1056700012923692B5F85A204FEA183305933793B1
:1056800002F00F0313933893C2F303131493399367
:10569000C2F303233A93CDE91532B5F85C30120B0F
:1056A00006923B9203F00F02B5F8504017923C92DD
:1056B000C3F30312B5F85E5018923D92C3F3032270
:1056C0001B931B0B04F00F0E200B07933F9305F069
:1056D0000F03C4F3031CC4F303210190279009F0C6
:1056E0000F00C9F3031B1D934093C5F30313C5F3C8
:1056F000032ABEF1080F20954FEA1535CDF890E04A
:10570000CDF894C026912890CDF8A4B019923E927D
:105710001E934193CDF888A0CDF808A10895439534
:1057200024BF6EF00F052495BCF1080F24BF6CF068
:105730000F052595082924BF61F00F01269121B29C
:10574000B1F1FF3F03DC019961F00F0127910828B7
:1057500024BF60F00F002890BBF1080F24BF6BF04E
:105760000F0029900998082824BF60F00F002A90A4
:105770000FFA89F0229AB0F1FF3F03DC029860F043
:105780000F002B900A98219D082824BF60F00F007D
:105790002C900B98082824BF60F00F002D900C98D7
:1057A000082824BF60F00F002E9038B2B0F1FF3F00
:1057B00003DC039860F00F002F900D98082824BF99
:1057C00060F00F0030900E98082824BF60F00F00A2
:1057D00031900F98082824BF60F00F00329030B24B
:1057E000B0F1FF3F03DC049860F00F003390109895
:1057F000082824BF60F00F0034901198082824BFB7
:1058000060F00F0035901298082824BF60F00F0058
:1058100036900FFA88F0B0F1FF3F03DC059860F096
:105820000F0037901398082824BF60F00F003890BD
:105830001498082824BF60F00F00399015980828A4
:1058400024BF60F00F003A90169800B2B0F1FF3F0D
:1058500003DC069860F00F003B901798239B082804
:1058600024BF60F00F003C901898082824BF60F017
:105870000F003D901998082824BF60F00F003E905B
:105880001B9800B2B0F1FF3F03DC079860F00F00F7
:105890003F901D981E21082824BF60F00F00409003
:1058A0001E98082824BF60F00F00419041F24D205F
:1058B000082A24BF62F00F0242922844189001EB9C
:1058C00013302099229009B203F00F00B1F1FF3F8D
:1058D0004FEA131103DC089A62F00F024392C3F3FC
:1058E00003221B92012202FA00F000EE100A5CA8CB
:1058F000B8EEC0BAA0F104081A989FEDAB0B9FED6B
:10590000AC8B01F00F0B00F18007002024AABEEE43
:1059100000CA56EC105B1997CDF8788044A9209006
:1059200051F820001B994FF0000988401C99CDF8D0
:1059300074800844239000BF37F81900C0F30510A5
:1059400000EE100AB8EE400A1F2830EE0A1A88BF8F
:10595000B0EE410A52F82900239900FA0BF00844EE
:1059600001EE100A20EE0B0AB8EEC11A30EE010A61
:1059700010EE100A03F0AEF80446B0EE480A229882
:10598000F0EE680AB2460E4602F0CEF953EC102B48
:1059900020463146564602F07DFB02F08DFA00EEBD
:1059A000100A1F9890ED001A90ED012A219832EE0E
:1059B000011A90ED063A23EE0C2A22EE011A30EE7F
:1059C000010A10EE100A03F085F802460B4628463D
:1059D000514602F05FFB02F06FFA09F1010924AAB7
:1059E000B9F1200F48F8040FA6D12098DDF8748093
:1059F000013008F18008182807F140078ED19DED8D
:105A00005CBA002040F6FC31B0EE4B8A5CAE00BFC1
:105A1000321892ED010A92ED021A92ED032AB4EEC9
:105A2000480A92ED043A92ED054A92ED065A92ED3B
:105A3000076A92ED087AF1EE10FAC8BFB0EE408A1C
:105A4000B4EE481AF1EE10FAC8BFB0EE418AB4EED7
:105A5000482AF1EE10FAC8BFB0EE428AB4EE483AD6
:105A6000F1EE10FAC8BFB0EE438AB4EE484AF1EE48
:105A700010FAC8BFB0EE448AB4EE485AF1EE10FAFC
:105A8000C8BFB0EE458AB4EE486AF1EE10FAC8BF5E
:105A9000B0EE468AB4EE487AF1EE10FAC8BFB0EE26
:105AA000478A92ED090A92ED0A1A92ED0B2AB4EE9A
:105AB000480A92ED0C3A92ED0D4AF1EE10FAC8BF89
:105AC000B0EE408AB4EE481AF1EE10FAC8BFB0EE5C
:105AD000418AB4EE482AF1EE10FAC8BFB0EE428A0D
